:02000000DE2FF1
:100E9000F0007008203E840083130008831685004C
:100EA0007008283E8400000883128500080004347E
:100EB0001034043400340434023404340034123462
:100EC00022342234263421342434223422348F3004
:100ED00083168F0583128501831685019501F7011D
:100EE000F801003048276830F600E430F500F50BD3
:100EF000772FF60B772F0000013048271030F600CF
:100F00009430F500F50B822FF60B822F0000023093
:100F100048271030F6009430F500F50B8D2FF60BB6
:100F20008D2F0000033048271030F6009430F50074
:100F3000F50B982FF60B982F0000043048276830E7
:100F4000F600E430F500F50BA32FF60BA32F0000FD
:100F5000053048271030F6009430F500F50BAE2F21
:100F6000F60BAE2F0000063048271030F600943004
:100F7000F500F50BB92FF60BB92F00000730482705
:100F80001030F6009430F500F50BC42FF60BC42F8B
:100F900000000130F7070318F80A0030F807780856
:100FA000803AFF0080307F02031DD82F1E30770269
:100FB000031C712F831285016300712F5727A00036
:100FC0005827A1005927A2005A27A3005B27A40095
:100FD0005C27A5005D27A6005E27A7005F27A80065
:100FE0006027A9006127AA006227AB006327AC0035
:100FF0006427AD006527AE006627AF008301672F29
:02400E00F4F0CC
:00000001FF
